:020000040800F2
:100000000000012095060008091200080D120008E2
:100010000F1200081112000813120008000000005F
:1000200000000000000000000000000015120008A1
:100030001912000800000000E50600081D12000863
:10004000E5060008E5060008E5060008E5060008E4
:10005000E5060008E5060008E5060008E5060008D4
:10006000E5060008E5060008E5060008E5060008C4
:10007000E5060008E5060008E5060008E5060008B4
:10008000E5060008E5060008E50600080000000097
:10009000000000000000000000000000E50600086D
:1000A000E5060008E5060008E5060008E506000884
:1000B000E5060008E5060008E5060008E506000874
:1000C000E5060008E5060008E5060008E506000864
:1000D000E5060008E5060008E50600080000000047
:1000E000E5060008E5060008E50600080000000037
:1000F000000000000000000000000000E50600080D
:1001000000000000E5060008E5060008E506000816
:1001100000000000000000000000000000000000DF
:10012000E5060008E5060008E5060008E506000803
:10013000E5060008000000000000000000000000CC
:10014000000000000000000000000000E5060008BC
:10015000E5060008E5060008E5060008E5060008D3
:10016000E5060008E50600080000000000000000A9
:10017000000000000000000000000000000000007F
:1001800000000000E506000800000000000000007C
:04019000E506000878
:1001940010B5054C237833B9044B13B10448AFF3BD
:1001A40000800123237010BD3804002000000000EB
:1001B4008C12000808B5034B1BB103490348AFF385
:1001C400008008BD000000003C0400208C120008E0
:1001D40053B94AB9002908BF00281CBF4FF0FF31AA
:1001E4004FF0FF3000F06EB9ADF1080C6DE904CEAC
:1001F40000F006F8DDF804E0DDE9022304B07047FE
:100204002DE9F047089D04468C46002B40F083807E
:100214008A42174647D9B2FA82F242B1C2F12000AB
:1002240024FA00F09140974040EA010C94404FEAD0
:100234001748230CBCFBF8F61FFA87FE08FB16C10F
:1002440043EA014306FB0EF1994209D9FB1806F172
:10025400FF3080F01981994240F21681023E3B44FE
:100264005B1AA4B2B3FBF8F008FB103344EA03446E
:1002740000FB0EFEA64509D93C1900F1FF3380F0BE
:100284000581A64540F2028102383C4440EA06401A
:10029400A4EB0E0400261DB1D4400023C5E900439D
:1002A4003146BDE8F08702B9FFDEB2FA82F2002AD5
:1002B40050D1CB1B4FEA174E1FFA87F80126B3FB28
:1002C400FEFC210C0EFB1C3341EA034108FB0CF33A
:1002D4008B4207D979180CF1FF3002D28B4200F21D
:1002E400E9808446C91AA3B2B1FBFEF00EFB1011DB
:1002F40043EA014408FB00F8A04507D93C1900F182
:10030400FF3302D2A04500F2D9801846A4EB0804BA
:1003140040EA0C40BFE78B4209D9002D00F0B180C0
:100324000026C5E9000130463146BDE8F087B3FA3E
:1003340083F6002E4AD18B4202D3824200F2B88067
:10034400841A61EB030101208C46002DA8D0C5E975
:10035400004CA5E7C2F1200320FA03F6974001FA06
:1003640002F04FEA174ED9403043030CB1FBFEF6BE
:100374001FFA87F80EFB161143EA014306FB08F146
:10038400994204FA02F409D9FB1806F1FF3C80F003
:100394008D80994240F28A80023E3B445B1A81B2CE
:1003A400B3FBFEF00EFB103341EA034100FB08F3FC
:1003B4008B4207D9791800F1FF3C73D28B4271D973
:1003C40002383944CB1A40EA064678E7C6F1200CD5
:1003D40003FA06F422FA0CF31C4320FA0CF701FA90
:1003E40006F34FEA144E21FA0CF11F433B0CB1FB08
:1003F400FEF91FFA84F80EFB191143EA014109FBC7
:1004040008FA8A4502FA06F200FA06F308D96118D6
:1004140009F1FF3048D28A4546D9A9F1020921449D
:10042400A1EB0A01BFB2B1FBFEF00EFB101147EACB
:10043400014700FB08F8B84507D9E71900F1FF3177
:100444002ED2B8452CD90238274440EA0940A7EBFC
:100454000807A0FB02894F45C64649461AD317D060
:100464005DB1B3EB0E0267EB010707FA0CFCF24037
:100474004CEA0202F740C5E9002700263146BDE8F0
:10048400F0872E4628460BE70646E9E61846FDE6C1
:100494004345E5D2B8EB020E69EB04010138DFE70E
:1004A4000846D2E760468DE78146B9E7664675E7B8
:1004B40030464AE7ACF1020C394413E702383C44B5
:1004C40024E700BF704700BF70B50D4E0D4D761B7D
:1004D400B61006D0002455F8043B01349847A642D0
:1004E400F9D1094E094D761B00F0CEFEB61006D0A8
:1004F400002455F8043B01349847A642F9D170BD55
:10050400C0120008C0120008C8120008C012000877
:10051400F0B4860746D0541E002A3CD0CAB2034623
:1005240001E0013C37D303F8012B9D07F9D1032CDB
:100534002AD9CDB245EA05250F2C45EA054534D91B
:10054400A4F1100222F00F0C03F1200716096744EE
:1005540003F1100242E9045542E902551032BA424D
:10056400F8D1721C14F00C0F03EB021204F00F0606
:1005740013D0331F23F003030433134442F8045B02
:100584009342FBD106F003042CB1CAB21C4403F815
:10059400012B9C42FBD1F0BC704734461346002C1F
:1005A400F3D1F8E714460346C1E71A462646E0E7C6
:1005B400024B13B1024800F005B870470000000078
:1005C400D5050008002301461A46184600F01AB85B
:1005D40038B5084B084D5B1B9C1007D0043B1D44E9
:1005E400013C55F804399847002CF9D1BDE838404E
:1005F40000F050BECC120008C8120008704700BFBB
:10060400704700BF2DE9F047DFF880A00646DAF80E
:10061400000098460F469146FFF7F0FF1A4B1B68FF
:10062400D3F8484124B365681F2D26DC5EB9AB1CA2
:100634000135DAF80000656044F82370FFF7E0FF45
:100644000020BDE8F08704EB85030121C3F88890FE
:10065400D4F88821A9400A43022EC4F88821C3F89B
:100664000881E4D1D4F88C311943C4F88C11DEE745
:1006740003F5A674C3F84841D5E7DAF80000FFF79C
:10068400BFFF4FF0FF30DCE7A4120008280400206D
:10069400DFF834D0002103E00C4B5B5843500431A5
:1006A4000B480C4B42189A42F6D30B4A02E0002343
:1006B40042F8043B094B9A42F9D300F0B3FDFFF72B
:1006C40003FF00F01BFD704700000120CC1200085E
:1006D4000000002038040020380400207C0400209E
:1006E400FEE7000084B00190019B03F0070303932D
:1006F4000B4BDB680293029A4FF6FF0313400293FD
:10070400039B1A02029B134343F0BF6343F4003379
:100714000293034A029BD36000BF04B0704700BF3A
:1007240000ED00E0034BDB681B0A03F007031846E7
:10073400704700BF00ED00E082B0034600918DF8E1
:1007440007309DF90730002B0ADB009BDAB20C4915
:100754009DF907301201D2B20B4483F800230BE059
:10076400009BDAB207499DF8073003F00F03043BFE
:100774001201D2B20B441A7600BF02B0704700BF18
:1007840000E100E000ED00E088B0039002910192E6
:10079400039B03F007030793079BC3F10703042B91
:1007A40028BF04230693079B0433062B02D9079B17
:1007B400033B00E0002305934FF0FF32069B02FA4F
:1007C40003F3DA43029B1A40059B9A404FF0FF3132
:1007D400059B01FA03F3D943019B0B4013431846CD
:1007E40008B0704700B583B00190019B013BB3F1A1
:1007F400807F01D301230FE0094A019B013B536031
:100804000F214FF0FF30FFF797FF054B00229A604E
:10081400034B07221A600023184603B05DF804FB5B
:1008240010E000E000B583B001900198FFF75AFF93
:1008340000BF03B05DF804FB00B587B00346029126
:1008440001928DF80F3000230593FFF76BFF05909D
:10085400019A02990598FFF797FF02469DF90F3018
:1008640011461846FFF768FF00BF07B05DF804FBA8
:1008740000B583B001900198FFF7B4FF0346184612
:1008840003B05DF804FB000000B587B00190019B44
:10089400002B01D101232FE2019B1B6803F001030C
:1008A400002B75D0A34B9B6803F00C03042B0CD0D6
:1008B400A04B9B6803F00C03082B12D19D4B5B6883
:1008C40003F48003B3F5800F0BD19A4B1B6803F438
:1008D4000033002B5BD0019B5B68002B57D10123B5
:1008E4000AE2019B5B68B3F5803F06D1914B1B681C
:1008F400904A43F4803313601DE0019B5B68B3F5B9
:10090400A02F0CD18B4B1B688A4A43F480231360BD
:10091400884B1B68874A43F4803313600BE0854B94
:100924001B68844A23F480331360824B1B68814A1A
:1009340023F480231360019B5B68002B13D000F029
:10094400D7FB049008E000F0D3FB0246049BD31AC3
:10095400642B01D90323CFE1764B1B6803F40033E6
:10096400002BF0D014E000F0C3FB049008E000F08A
:10097400BFFB0246049BD31A642B01D90323BBE1BA
:100984006C4B1B6803F40033002BF0D100E000BF74
:10099400019B1B6803F00203002B63D0654B9B682B
:1009A40003F00C03002B0BD0624B9B6803F00C0389
:1009B400082B1CD15F4B5B6803F48003002B16D11A
:1009C4005C4B1B6803F00203002B05D0019BDB6822
:1009D400012B01D001238FE1564B1B6823F0F80251
:1009E400019B1B69DB00534913430B603AE0019BF5
:1009F400DB68002B20D0504B01221A6000F078FBFA
:100A0400049008E000F074FB0246049BD31A022B06
:100A140001D9032370E1474B1B6803F00203002B49
:100A2400F0D0444B1B6823F0F802019B1B69DB00E8
:100A3400404913430B6015E03F4B00221A6000F05D
:100A440057FB049008E000F053FB0246049BD31AC2
:100A5400022B01D903234FE1364B1B6803F0020339
:100A6400002BF0D1019B1B6803F00803002B30D04E
:100A7400019B5B69002B16D0304B01221A6000F0F9
:100A840037FB049008E000F033FB0246049BD31AC2
:100A9400022B01D903232FE1264B5B6F03F00203E2
:100AA400002BF0D015E0254B00221A6000F020FB4B
:100AB400049008E000F01CFB0246049BD31A022BAE
:100AC40001D9032318E11B4B5B6F03F00203002BD6
:100AD400F0D1019B1B6803F00403002B00F0A280FB
:100AE40000238DF81730134B1B6C03F08053002B3D
:100AF40010D1002303930F4B1B6C0E4A43F0805319
:100B040013640C4B1B6C03F080530393039B01236E
:100B14008DF817300A4B1B6803F48073002B20D127
:100B2400074B1B68064A43F48073136000F0E0FA35
:100B3400049010E00038024000004742800E474213
:100B44000070004000F0D4FA0246049BD31A022B32
:100B540001D90323D0E06A4B1B6803F48073002B94
:100B6400F0D0019B9B68012B06D1664B1B6F654A35
:100B740043F0010313671CE0019B9B68052B0CD118
:100B8400604B1B6F5F4A43F0040313675D4B1B6F9D
:100B94005C4A43F0010313670BE05A4B1B6F594A3D
:100BA40023F001031367574B1B6F564A23F00403CA
:100BB4001367019B9B68002B15D000F099FA0490F1
:100BC4000AE000F095FA0246049BD31A41F28832F7
:100BD400934201D903238FE04A4B1B6F03F00203B6
:100BE400002BEED014E000F083FA04900AE000F049
:100BF4007FFA0246049BD31A41F28832934201D908
:100C0400032379E03F4B1B6F03F00203002BEED16B
:100C14009DF81730012B05D13A4B1B6C394A23F050
:100C240080531364019B9B69002B64D0354B9B68F4
:100C340003F00C03082B5CD0019B9B69022B41D170
:100C4400314B00221A6000F053FA049008E000F0DF
:100C54004FFA0246049BD31A022B01D903234BE01B
:100C6400284B1B6803F00073002BF0D1019BDA6959
:100C7400019B1B6A1A43019B5B6A9B011A43019BFC
:100C84009B6A5B08013B1B041A43019BDB6A1B063E
:100C94001C4913434B601C4B01221A6000F028FAD4
:100CA400049008E000F024FA0246049BD31A022BB5
:100CB40001D9032320E0134B1B6803F00073002BBE
:100CC400F0D018E0104B00221A6000F011FA0490E2
:100CD40008E000F00DFA0246049BD31A022B01D956
:100CE400032309E0074B1B6803F00073002BF0D1CA
:100CF40001E0012300E00023184607B05DF804FB7F
:100D040000700040003802406000474200B585B0E2
:100D140001900091019B002B01D10123CAE0674B94
:100D24001B6803F00F03009A9A420CD9634B009A94
:100D3400D2B21A70614B1B6803F00F03009A9A42F7
:100D440001D00123B6E0019B1B6803F00203002BD2
:100D540020D0019B1B6803F00403002B05D0584BE3
:100D64009B68574A43F4E0539360019B1B6803F06C
:100D74000803002B05D0524B9B68514A43F460434F
:100D840093604F4B9B6823F0F002019B9B684C4996
:100D940013438B60019B1B6803F00103002B44D0B9
:100DA400019B5B68012B07D1454B1B6803F400339F
:100DB400002B19D101237DE0019B5B68022B03D03A
:100DC400019B5B68032B07D13D4B1B6803F0007349
:100DD400002B09D101236DE0394B1B6803F002039A
:100DE400002B01D1012365E0354B9B6823F00302FE
:100DF400019B5B68324913438B6000F079F90390DF
:100E04000AE000F075F90246039BD31A41F28832D6
:100E1400934201D903234DE0294B9B6803F00C0254
:100E2400019B5B689B009A42EBD1244B1B6803F047
:100E34000F03009A9A420CD2204B009AD2B21A7035
:100E44001E4B1B6803F00F03009A9A4201D0012342
:100E540030E0019B1B6803F00403002B08D0184BFF
:100E64009B6823F4E052019BDB68154913438B60B4
:100E7400019B1B6803F00803002B09D0104B9B68EF
:100E840023F46042019B1B69DB000D4913438B6013
:100E940000F01CF802460A4B9B681B0903F00F0381
:100EA4000849CB5C22FA03F3074A1360002000F0E0
:100EB400E1F80023184605B05DF804FB003C02404D
:100EC40000380240A81200083404002030B585B070
:100ED4000021019100210391002100910021029140
:100EE4005149896801F00C0108290DD0082900F244
:100EF4009480002902D0042903D08EE04B4B029346
:100F04008EE04B4B02938BE04749496801F03F0167
:100F140001914549496801F48001002924D04249DE
:100F24004968890908464FF0000140F2FF144FF068
:100F3400000500EA040201EA05033D4901FB03F050
:100F4400002101FB02F144183949A2FB0101631895
:100F54001946019B1A464FF00003FFF739F9024680
:100F64000B46134603934AE02F4B5B689B091A46D2
:100F74004FF0000340F2FF104FF0000102EA0004BA
:100F840003EA0105204629464FF000024FF0000312
:100F94004B0143EAD063420110461946001B61EB42
:100FA40005014FF000024FF000038B0143EA906308
:100FB4008201121A63EB01034FF000004FF00001AD
:100FC400D90041EA5271D00002460B46121945EB92
:100FD40003034FF000004FF00001990241EA9251DF
:100FE400900202460B4610461946019B1A464FF0E2
:100FF4000003FFF7EDF802460B46134603930A4B32
:101004005B681B0C03F0030301335B000093039A3A
:10101400009BB2FBF3F3029302E0044B029300BF84
:10102400029B184605B030BD003802400024F4008D
:1010340040787D0108B50E4B1B680D4A43F40073DC
:1010440013600B4B1B680A4A43F480631360084B1C
:101054001B68074A43F4807313600320FFF7E2FB25
:10106400002000F007F800F0ABF80023184608BD94
:10107400003C024000B583B00190134B1A68134B37
:101084001B7819464FF47A73B3FBF1F3B2FBF3F315
:101094001846FFF7EDFB0346002B01D001230EE0B9
:1010A400019B0F2B0AD8002201994FF0FF30FFF764
:1010B400C3FB074A019B1360002300E00123184689
:1010C40003B05DF804FB00BF3404002030040020AA
:1010D4002C040020044B1B781A46044B1B68134451
:1010E400024A136000BF70473004002078040020D7
:1010F400014B1B68184670477804002008B5FFF7B9
:1011040099FF00F001F8FEE700B595B008AB302276
:1011140000211846FFF7FCF903AB00221A605A605D
:101124009A60DA601A6100230293224B1B6C214AF5
:1011340043F0805313641F4B1B6C03F080530293E2
:10114400029B002301931C4B1B6823F440431A4A5F
:1011540043F400431360184B1B6803F440430193AA
:10116400019B0223089301230B9310230C93002368
:101174000E9308AB1846FFF787FB0346002B01D0FC
:1011840000F01CF80F23039300230493002305931A
:10119400002306930023079303AB00211846FFF7AF
:1011A400B5FD0346002B01D000F008F800BF15B0D0
:1011B4005DF804FB003802400070004000BF704737
:1011C40082B0002301930E4B5B6C0D4A43F48043C1
:1011D40053640B4B5B6C03F480430193019B00232A
:1011E4000093074B1B6C064A43F080531364044B73
:1011F4001B6C03F080530093009B00BF02B0704748
:101204000038024000BF7047FEE7FEE7FEE7FEE756
:1012140000BF704700BF704708B5FFF75BFF00BF12
:1012240008BD0000154BD3F88830144A43F470030A
:10123400C2F88830124B1B68114A43F00103136053
:101244000F4B00229A600E4B1B680D4A23F08473E7
:1012540023F4803313600A4B0A4A5A60084B1B6814
:10126400074A23F480231360054B0022DA60034B02
:101274004FF000629A6000BF704700BF00ED00E0CD
:101284000038024010300024F8B500BFF8BC08BC98
:101294009E467047F8B500BFF8BC08BC9E46704730
:1012A4000000002000000000000000000102030410
:0412B4000607080918
:0812B8004CEFFF7F0100000074
:0812C000B5050008B9010008A2
:0412C8009501000884
:1012CC0000000000EC02002054030020BC030020AE
:1012DC000000000000000000000000000000000002
:1012EC0000000000000000000000000000000000F2
:1012FC0000000000000000000000000000000000E2
:10130C0000000000000000000000000000000000D1
:10131C0000000000000000000000000000000000C1
:10132C0000000000000000000000000000000000B1
:10133C0000000000000000000000000000000000A1
:10134C000000000000000000000000000000000091
:10135C000000000000000000000000000000000081
:10136C000000000000000000010000000000000070
:10137C000E33CDAB34126DE6ECDE05000B00000035
:10138C000000000000000000000000000000000051
:10139C000000000000000000000000000000000041
:1013AC000000000000000000000000000000000031
:1013BC000000000000000000000000000000000021
:1016EC000000000000000000540400201000000066
:0816FC00010000000024F400CD
:040000050800069554
:00000001FF
